:060000000A128A11122809
:10000800F000030EF1000B192F200C1864208C1837
:100018007720710E8300F00E700E09001D2000215C
:1000280007211421242131210313831236204B2068
:100038001A280317831688018901031383160610EB
:100048008701880103138312860187018801A501AE
:10005800A601A101080003138312FA3081000B11D5
:100068003D20080026080022A80025080022A90033
:1000780008000810881027184628280887008814C0
:1000880027140800290887000814271008000313FC
:100098008312A501A6012208A1000A30A102A50A1F
:1000A80003185128A5030A30A1075B200800013076
:1000B800A102A60A03185B28A6030130A1070800BD
:1000C800031383120B308F00DC308E000C10A00A53
:1000D800A01C0800A001A20A2208A4006430A402FF
:1000E8000319A20108008C10A30AA31C0800A31D71
:0800F8000800A301860A0800BC
:10020000031383160F140F178F160F120800031312
:1002100083168112811101158114011403138312B5
:10022000FA3081000B110800031383129010901113
:100230009016101610131014031383120B308F0036
:10024000DC308E000C10080003138316F03092008F
:10025000031383129214121412179216121292118F
:100260001215031383160C148C14031383120B172B
:0C0270008B178B160B110C108C10080063
:100400008A018A140F3982073F3406345B344F3433
:1004100066346D347D3407347F346F3477347C3404
:0804200039345E347934713483
:04400E00C430FF3F7C
:00000001FF
